:400000000040002011000000890B0000890B000080B500AF00F0C2FD80B500AF244B12221A6003F06BFB234B181C03F099FB012003F074FB302003F071F91F4B1F4A1A6094
:400040001F4B8022D2051A601E4B1E4A126802210A431A601C4B1D4A1A601D4B00221A601C4B1C4A126808218A431A60FA23DB00181C03F09FF9184B181C03F0C9FA174B85
:40008000C82252011A60164B164A1A60164B802212061A60154B8022D2021A60144B40221A60074B8022D2051A60BD4680BDC04630001040001BB70004010B40060000807B
:4000C0000C020B4078002E407C002E402D3E000064F02E406CF02E40DC050000000301400000014040FF008008010B4000010B400401014080B582B000AF72B63E4B0022EC
:400100001A60FB1D00221A7023E0FB1D1A78131C5B009B185B00394A9B183B603B681A78597809020A43997809040A43DB781B061343191C3B681A795B791B0213439BB2D9
:40014000081C191C00F0AEFDFB1D1A78FB1D01321A70FB1D1B78012BD7D9294B294A1A60294B992212061A60284B992212041A60274B992212041A60264B992212041A602C
:40018000254A254B1B78DBB202210B43DBB21370224A224B1B78DBB23C218B43DBB214210B43DBB213701C4A1B4B1B78DBB216210B43DBB213701A4B20221A60194B1A4A11
:4001C0001A601A4B20221A60194B50221A60194BE12292031A60184B40221A60174B80221A60174B802212041A60FFF715FF00F069FDBD4602B080BD6CF02E40406601008A
:4002000000000240000099EE0001024000500F4010500F4030500F4000700F4001700F4000000440080004400010DB00180004400001044008010440180104400003044009
:400240000803044010B5064C2378002B07D1054B002B02D0044800E000BF0123237010BDC00F002000000000CC62010008B5084B002B03D00748084900E000BF0748036899
:40028000002B00D108BD064B002BFBD09847F9E700000000CC620100C40F0020A80B00200000000090B583B000AF62B602F050FDBC1D404B181C00F07BFD031C2380BB1D6A
:4002C0001B88002B1AD13C4B181C02F0E7FF3B4B181C02F0E3FF3A4B181C02F0DFFF394B181C02F0DBFF384B181C02F0D7FF374B181C02F0D3FF03F0D1FE04E0344B181CC5
:4003000002F0CCFFFEE7334B1B78012B4DD0314B1B78052B49D07C1D032003F0B7FE031C237072B63C1D05F097FE031C23707B1D1B78032B1DD13B1D1B78042B03D03B1D0A
:400340001B78062B2ED102F03FFE011C224B1A6880231B02134001D0012300E00023CB18002B1FD100F0B8FB03F066F900F0A8FB18E03B1D1B78022B14D002F025FE011CC8
:40038000154B1A6880231B02134001D0012300E00023CB18002B05D100F09EFB03F04CF900F08EFB62B600F0A3FB00F017F803F075FEA8E78D040000D06201001063010060
:4003C0005063010094630100B0630100CC630100E8630100742100200802244090B583B000AF244B1B78032B04D0052B26D0022B09D03CE0204B1B78DBB2002B02D000F0B3
:40040000B7FD34E033E01D4B1B781F2B02D000F0A5F912E01A4B1B78DBB201225340DBB2002B02D000F018FA07E0164B1B78DBB2012B02D000F046FA19E018E00E4B1B7810
:40044000DBB2002B0ED0BC1D0F4B181C00F0A0FD031C2380BB1D1B88002B07D1064B00221A7003E0002000F031FDFFE7C046BD4603B090BD74210020E60F0020EF0F0020BD
:40048000E70F002084210020E80F002080B586B000AF786039607B68522B00D934E17B689A009B4BD3181B689F463B687B617B691B78042B38D17B691B7A062B34D17B69FA
:4004C000DB6801331B78FF2B2ED17B69DB6802331B78312B28D17B69DB6803331B78012B22D17B69DB6804331B783B2B1CD17B69DB6805331B78042B16D1864B01221A70AC
:400500007B695B68844A111C1A1C0623081C111C1A1C03F07EFD7B695A787F4B9A717F4B181C02F0BBFEF0E0EFE07A4B00221A707B4B00221A707B4B00221A707A4B181CA4
:4005400002F0ACFEC04602F03FFD011C774B1A6880231B02134001D0012300E00023CB18002BF0D102F006FC02F052FD02F08CFC02F0EEFBC9E03B683B613B695B685A1D20
:400580006B4B101C191C102203F034FD031E1CD13B695B6803331B789AB2664B1A803B695B6804331B781B029AB2624B1B889BB213439BB29AB25F4B1A805A4B1B78022233
:4005C0001343DAB2574B1A7027E03B695B685A1D594B101C191C102203F00CFD031E1CD13B695B6803331B789AB2544B1A803B695B6804331B781B029AB2504B1B889BB2ED
:4006000013439BB29AB24D4B1A80464B1B7804221343DAB2434B1A7077E076E03B68FB60FB685B6803331B78292B21D1FB685B6802331B78022B1BD1FB685B681B789AB269
:400640003F4B1A80FB685B6801331B781B029AB23B4B1B889BB213439BB29AB2384B1A80304B1B7808221343DAB22E4B1A704CE04BE03B685B88162B04D83B685A88314B66
:400680001A8002E02F4B17221A80264B1B7810221343DAB2234B1A7037E03B68181C00F0F9F832E03B68BB60BB685B681A88264B1A80BB685B685A88244B1A80194B1B7867
:4006C00001221343DAB2174B1A701EE03B685B88162B04D83B685A881A4B1A8015E0194B17221A8011E00E4B01221A70184B181C02F0D4FD174B181C02F0D0FD05E0164BCC
:40070000181C02F0CBFD00E0C046BD4606B080BDF4640100E60F0020E80F002050640100E70F0020EF0F0020886401000802244028640100DC0F002038640100DE0F0020E4
:40074000E00F0020AC0B0020E20F0020E40F0020A0640100BC640100D864010080B500AF354B1B78012B1AD002DC002B05D05EE0072B32D00F2B4AD059E0304A304B1178A4
:4007800052781202114300220904090C120C12040A43101C19685A680FF054FC47E0294B1A88294B1A80294B1A88274B5A80234A254B117852781202114300220904090CFB
:4007C000120C12040A4319885B881B040B430021191C101C0FF01AFC29E01D4B1B8801339AB21C4B1A80194B1A881A4B5A80134B18491A785B781B021A4300231204120C21
:400800001B0C1B041343181C0FF0EAFB0FE00B4B1A785B781B021A4300231204120C1B0C1B041343181C17210FF028FCC04603F035FCBD4680BDC046EF0F00208821002007
:4008400048640100E20F002050210020E40F0020DC0F00204C21002080B500AF0A4B1A880A4B1A810A4B09491A785B781B021A4300231204120C1B0C1B041343181C0FF007
:400880008FFCBD4680BDC046E00F0020B00B00208821002080B582B000AF78607B689A89074B1B889A4207D17B685A687B681B89101C191C02F06EFBBD4602B080BDC04637
:4008C000DC0F0020F0B58FB000AF68467860764800880338431E9C4663463B63031C3B6100237B613B695B0F9C467B69DA0063461A433B69D900021C151C0022161C6A0FC2
:40090000F300FB60FB681343FB60EB00BB60031C0733DB08DB006A46D31A9D466B460033FB6202F08DFA021C1C2318218C46BC4463441A801C2318229446BC4463441B88B8
:400940005A4A934202D900F0BBF801E000F0C4F81C2318229446BC4463441B88002B00D19DE01C2318229446BC4463441A884E4B1B88033B9A420DDB4D4BFA2292001A8023
:40098000494B1A881C2318218C46BC446344033A1A8010E0464B1B88013B9AB2444B1A80434B1B88002B06D01C2318229446BC44634400221A801C2318229446BC44634482
:4009C0001B88002B6BD03A4BFA2292001A801F2318229446BC44634400221A7018E01F2318229446BC4463441C7802F023FC031CDAB2FB6A1A551F2318229446BC44634462
:400A00001A781F2318218C46BC44634401321A701F2318229446BC4463441B789BB21C2218218C46BC44624412889A42D7D8214B1A881C23FB181A811C23FB181C221821BE
:400A40008C46BC44624412889A80FA6A1C23FB181A6000F035F812231822BA18D418164B1C22B9181A785B781B021A4300231204120C1B0C1B041343181C0FF09BFB031CA6
:400A8000238003F00BFB122318229446BC4463441B88002B03D0094B1B78022BDBD07B689D46BD460FB0F0BDAC0B0020FF030000BC0B0020DE0F00208821002074210020CA
:400AC00080B500AF034B034A126804218A431A60BD4680BDC80F244080B500AF034B034A126804210A431A60BD4680BDC80F244080B500AF204B1B78022B1FD0032B00D0BA
:400B000038E0012002F0E8F81C4B1B685A1E1B4B1A601A4B1B68002B0FD1184B03221A60174B1B7801225340DAB2154B1A70144B1B78181C02F0AAF81CE01BE0012002F08E
:400B4000A5F8104B1B685A1E0E4B1A600D4B1B68002B0ED10B4B1E221A60094B1B7801225340DAB2064B1A70054B1B78181C02F0B3F8C046BD4680BD74210020C00B00201C
:400B8000C40B0020C80B002080B500AF03F006FA031C1B680C2B00D1FEE7FEE780B586B000AF224B7B61224B3B61204B7B6135E03B691B68FB603B695B68BB603B699B6895
:400BC0003B6000237B600CE0FB681A68BB681A60BB680433BB60FB680433FB607B6804337B607A683B689A42EED13B69DB683B6000237B6008E0BB6800221A60BB680433EE
:400C0000BB607B6804337B607A683B689A42F2D13B6910333B617B69013B7B617B69002BC6D103F0C1F9FFF73DFBFEE701000000B068010080B582B000AF154B144A126833
:400C400001218A431A6000237B600FE07B68032B04D8104B7A689200D35800E00E4B0F4A796889008B507B6801337B607B682F2BECD9FFF73FFA0A4B00221A60044B044AAF
:400C8000126801210A431A60BD4602B080BDC0460000104000000000890B000000000020C000002080B582B000AF786039607A683B68101C00211A1C03F0B4F9BD4602B011
:400CC00080BDC04680B500AF054B03221A60054B03221A60044B00221A60BD4680BDC0463000304030003140000E3F4080B500AF194B00221A70194B00221A70184B002267
:400D00001A70184B5A88184B1A80164B9A88164B5A80144B9A79144B1A73124BDA79124B1A71114B0622DA810F4B06221A820E4B00225A820C4B64229A820B4B0022DA8212
:400D4000094B012252421A83084B1E221A8000F00FF8BD4680BDC0469C210020842100209A210020CC0B0020582100207221002080B500AF0B4B1B88002B05D10A4B181C3A
:400D800000210E2203F04EF9064BDB88002B05D1064B181C0021062203F044F901F0EAFBBD4680BDE40B00208C2100207C210020B0B594B004AF78603E23FB1800221A80E2
:400DC0002823FA183A4B111C1A1C1423081C111C1A1C03F01EF9374B1B78002B04D1FFF785FF344B01221A707B68002B55D0324B7A681A603E23FB181B88002B29D11023B0
:400E0000FB181C22BA185A601023FB182022BA181A601023FB1800221A812023FB181B221A802023FB181B225A802023FB1804221A711C23FB1800221A703E23FC181023B7
:400E4000FA180E23FB18101C191C03F003FA031C23803E23FB181B88002B22D13E23FC1816481749AE231A012823FD180523009300230193002302932B1C03F041F9031C98
:400E800023803E23FB181B88002B0AD10D4B01221A700D4B08221A7003E03E23FB1801221A803E23FB181B88181CBD4610B0B0BD4C660100F00F00205421002065150000F1
:400EC000C8000020742100207521002090B585B000AF021CFB1D1A70FB1D1B78022B04D90E23FB1801221A8035E0FB1D1B78002B09D11C4B0A221A811A4B30225A80194B18
:400F000030229A800EE0FB1D1B78012B0AD1154B96221A81134B802212015A80114BE122D2009A80104BFA1D12781A700E23FC180C4B181C0EF0C2FA031C23800E23FB18A4
:400F40001B88002B07D1094B1B78DBB204221343DAB2064B1A700E23FB181B88181CBD4605B090BDCC0B00209A2100209C21002080B500AF0EF0CEFA044B1B78DBB2082262
:400F80001343DAB2014B1A70BD4680BD9C21002090B585B000AF7860294B1B78052B05D00E23FB180422FF321A8041E07B68002B04D10E23FB1801221A8039E00D23FB18B9
:400FC00000221A7012E00D23FB181B780D22BA1812787968895C1B4AD3180A1C5A710D23FB181A780D23FB1801321A700D23FB181B78052BE7D97B689A79124BDA720E2380
:40100000FC18104B181C0EF0FFF9031C23800E23FB181B88002B0BD1094B04221A700A4B1B88002B04D0084B1B88181C0BF0DCF90E23FB181B88181CBD4605B090BDC0464C
:4010400074210020582100207221002090B583B000AF104B1B78042B04D0BB1D0422FF321A8011E0BC1D0EF0C1F9031C23800A4B1B88002B01D00BF0D1F9BB1D1B88002BEB
:4010800002D1044B05221A70BB1D1B88181CBD4603B090BD742100207221002080B582B000AF78607B681B789AB27B6801331B789BB21B029BB213439BB2181CBD4602B0A6
:4010C00080BDC04680B582B000AF78607B68DB880D4A934214D10D4B5B88002B08D17B689A880A4B5A807B689A78084B1A7007E0074B1B687A68911D86225200101C9847D2
:40110000BD4602B080BDC046052A00007C2100205421002080B582B000AF78607B689B880B4A934210D10B4B9B88002B04D17B685A88084B9A8007E0074B1B687A68111DC0
:4011400086225200101C9847BD4602B080BDC046022900007C2100205421002080B582B000AF78600C4B5A887B689B899A420FD10A4B1B68832251007A68081C111C98472B
:40118000074B1B78DBB201229343DAB2044B1A70BD4602B080BDC0467C210020542100209C21002080B582B000AF7860BD4602B080BDC04680B582B000AF7860BD4602B0AF
:4011C00080BDC04680B582B000AF7860BD4602B080BDC04690B589B000AF7860394B1B78022B6BD1384B1B88002B67D00C23F918354B02229B180422081C191C02F009FFA9
:401200007B685A687B681B891C1C0C23FB180433181C111C221C02F0FCFE0C23FB18181C01F01CFA284B1B8801339AB20C23FB181A80264B1B78191C254A0B1C5B005B18BA
:401240005B00D3185A880C23FB185A800C23FB181A880C23FB185B889A4221D81D4B0C22B9181A785B781B021A4300231204120C1B0C1B041343181C0EF010FF031E12D0CF
:40128000154B1B6884225200101C00219847134B1B78DBB202229343DAB2104B1A7002E0012000F0E9FB0D4B1B78DBB201229343DAB20A4B1A70044B00221A80BD4609B0C4
:4012C00090BDC04675210020F40F00209B210020E40B002088210020542100209C21002090B589B000AF7860394B1B78022B6BD1384B1B88002B67D00C23F918354B0222AB
:401300009B180422081C191C02F083FE7B685A687B681B891C1C0C23FB180433181C111C221C02F076FE0C23FB18181C01F096F9284B1B8801339AB20C23FB181A80264B4D
:401340001B78191C254A0B1C5B005B185B00D3185A880C23FB185A800C23FB181A880C23FB185B889A4221D81D4B0C22B9181A785B781B021A4300231204120C1B0C1B043C
:401380001343181C0EF08AFE031E12D0154B1B6884225200101C00219847134B1B78DBB202229343DAB2104B1A7002E0012000F063FB0D4B1B78DBB201229343DAB20A4B87
:4013C0001A70044B00221A80BD4609B090BDC04675210020F40F00209B210020E40B002088210020542100209C21002080B500AF094B00225A70084B00221A70074B1B7842
:40140000052B03D1054B07221A7002E0034B08221A70BD4680BDC046882100207521002080B582B000AF78607B681B78032B3ED1254B1B78DBB21A1C0223134037D0234BA8
:401440001B78022B10D002DC012B05D024E0032B12D0042B18D01FE01D4B1B680822FF32101C0021984717E0194B1B6884225200101C002198470FE0154B1B680A22FF3220
:40148000101C0021984707E0114B1B6885225200101C00219847C0460B4B1B78DBB202229343DAB2084B1A70084B00221A707B681B78042B05D1074B1B78042B01D1FFF7E0
:4014C000C5FDBD4602B080BD9C21002075210020542100207421002080B500AFBD4680BD80B584B000AF78600E23FB1800221A707B689B79002B1CD10F23FB1800221A7057
:4015000012E00F23FB181B787A68D35C002B04D00E23FB1801221A700BE00F23FB181A780F23FB1801321A700F23FB181B78052BE7D90E23FB181B78181CBD4604B080BD55
:4015400080B582B000AF021CBB1D1A80BD4602B080BDC04680B582B000AF7860BD4602B080BDC04680B586B000AF021C3960FB1D1A70C14B1B78DBB201221343DAB2BE4B3A
:401580001A70FB1D1B78712B00D95AE19A00BB4BD3181B689F460C23FB1807221A700C23FB1800225A700C23FB18181C04F0B4FD0C23FB1807221A700C23FB1801225A70F1
:4015C0000C23FB18181C04F0A7FDAD4B1B68181CFFF786FF031E05D0A94B1B68181C02F061FD03E0A74B181C02F05CFD03200DF0F7FD0823FB183F221A700823FB180022D1
:401600005A700823FB18181C0DF008FE9E4B05221A7017E13B68181CFFF702FF12E13B681A789A4B1A700DE13B683B613B691B78002B18D13B695B78002B0BD1944B00227D
:40164000DA80934B00229A80914B924A1A603B698F4A5A60884B1B78DBB201229343DAB2854B1A70EEE0EDE0834B1B78DBB21A1C202313400ED1884B1B78102B02D1864B42
:401680000522DA70854B1A78834B101C191C0DF0E1FBD7E0D6E03B68181CFFF75BFFD1E03B68181CFFF756FF7D4B1B88002B01D00AF0B4FE744B02221A70C3E0724B0522E1
:4016C0001A70BFE0704B1B78022B40D06A4B1B78DBB21A1C0123134039D0674B1B78DBB21A1C042313400BD0674B03221A70624B1B78DBB204229343DAB25F4B1A7026E05E
:401700005D4B1B78DBB21A1C082313400BD05E4B05221A70584B1B78DBB208229343DAB2554B1A7013E0584B1B78032B0FD1564B05221A705B4B1B78002B08D10120FFF7A2
:40174000C5FB031E03D1504B03221A707AE079E03B681B88181CFFF7F3FE73E04F4A3B68111C1A1C0223081C111C1A1C02F051FC464B00221A704C4B00221A70FFF7ACFE59
:4017800060E0FFF733FE5DE03B685B88162B05D81623FB183A6852881A8003E01623FB1817221A803B681622BA1811881A8800231204120C1B0C1B041343181C0EF0BCFFB5
:4017C00040E03B68181C00F073F83BE03B68181C00F086FA36E000F067FE33E03B68181C00F012FD2EE03B68181C00F0ADFE29E03B68181CFFF7DEFC24E03B68181CFFF7E0
:40180000ADFC3B68181CFFF7DDFC1B4B1B78DBB21A1C0123134004D13B6818680EF0D8FB10E00FE03B68181CFFF7D4FC0AE03B68181CFFF755FD05E03B68181CFFF7B2FC78
:4018400000E0C0460C4B1B78DBB21A1C112313400FD0094B1B78DBB201229343DAB2064B1A70124B1B68FA1D11783A68081C111C9847BD4606B080BD9C21002060660100AF
:40188000E00B0020D80B002074210020842100200C100020A80B0020F80B002088210020722100209A210020752100205421002080B586B000AF78600023FB60694B1B7815
:4018C000012B00D0CAE0684B1B78DBB21A1C0223134000D1C2E00A23FB187A6812891A800A23FB181B88062B05D00A23FB181B88142B00D0ABE00823FB187A6852891A80FC
:401900001423FB1800221A808FE07B685A681423FB181B88D318FB601323FB1800221A70FB681A88514B1B889A4200D273E0FB681A884E4B5B889A4200D96CE00A23FB185E
:401940001B88062B63D11623FB1800221A8053E01623FB181A884649131C5B009B185B00CB189A88FB689B889A423ED11623FB181A883F49131C5B009B185B005B5A002BAB
:4019800013D11623FB181A883949131C5B009B185B00FA68CB18111C0422181C02F039FB1323FB1801221A701FE01623FB181B88012B0ED81623FB181B885A1C2C49131C4A
:4019C0005B009B185B00CB189A88FB689B889A420BD0284B1B68FA68111D0C22FF32101C98471323FB1801221A701623FB181A881623FB1801321A801623FB181B88022B33
:401A000009D81323FB181B78002BA1D003E0FB68181C00F023FE1423FB181422B9180A22BA18098812888A181A801423FA180823FB1812881B889A4200D266E70A4B1B7865
:401A4000DBB201229343DAB2074B1A7006E0094B1B680822FF32101C00219847BD4606B080BDC046752100209C21002078210020E40B00205421002080B582B000AF021C14
:401A8000FB1D1A70FB1D1B78002B06D0334B1B780133DAB2314B1A7005E0304B00221A702F4B00221A8005E02C4B1B780133DAB22A4B1A70294B1B78022B19D8274B1B78E7
:401AC000191C284A0B1C5B005B185B009A5A264B1B889A42E8D3214B1B78191C214A0B1C5B005B185B009A5A1F4B5B889A42DBD81A4B1B78022B28D8184B1B781A1C131C11
:401B00005B009B185B00174A9918184B1A785B781B021A4300231204120C1B0C1B041343181C0EF0BBFA031E15D0114B1B6884225200101C002198470E4B1B78DBB2022268
:401B40009343DAB20B4B1A7005E00B4B03221A70002000F0A3FABD4602B080BD9B210020F40F0020E40B00207821002088210020542100209C2100207521002080B582B07B
:401B800000AF78607B68DB884E4A934200D184E04C4A93420BDC4C4A934224D04A4A934200DD68E0A822920193420AD087E0474A93423CD0464A93424BD0464A934224D0B9
:401BC0007DE0454B1B88002B04D17B689A88424B1A8074E0414B1B687A68911D86225200101C98476BE03C4B5B88002B04D17B689A88394B5A8062E0384B1B687A68911D41
:401C000086225200101C984759E0334B1B89002B04D17B689A88304B1A8150E02F4B1B687A68911D86225200101C984747E02A4B5B89002B04D17B689A88274B5A813EE077
:401C4000264B1B687A68911D86225200101C984735E0214B9B89002B04D17B689A881E4B9A812CE01D4B1B687A68911D86225200101C984723E0184B9B88002B04D17B68B5
:401C80009A88154B9A801AE0144B1B687A68911D86225200101C984711E00F4BDB88002B04D17B689A880C4BDA8007E00B4B1B687A68911D86225200101C9847C046BD4655
:401CC00002B080BD032A0000012A0000A62A0000C92A0000042A00008C2100205421002090B593B000AF7860D14B1B78DBB21A1C0223134000D1CBE13E23FB187A681289E3
:401D00001A803C23FB187A6852891A807B685B683B64C84B1B78032B00D0C2E04623FB1800221A80B3E03B6C181CFFF7B7F9031C1A1C2423FB181A803B6C02333B643B6CFE
:401D40001A782423FB189A703B6C01333B643B6C181CFFF7A3F9031C1A1C2423FB189A803B6C02333B643E23FB181B88152B34D12423FB1802229A752423FB180622396C32
:401D80009B181022181C02F044F93B6C10333B64A94B1B78191CA94A0B1C5B005B185B00D3189B881A1EA64B9A4214D0A24B1B78012B0FD9A04B1B78022B0BD89E4B1B78BE
:401DC0009BB2023B9AB22423FB18101C191C00F0ADFC01E000E0C04647E03E23FB181B88072B42D12423FB1801229A753B6C181CFFF754F9031C1A1C2423FB18DA803B6C15
:401E000002333B648C4B1B78191C8C4A0B1C5B005B185B00D3189B88C0225201934203D0884A934206D00BE02423FB18181CFFF7A5FE1AE02423FB18181CFFF743F914E0E1
:401E40007D4B1B78012B0FD97B4B1B78022B0BD8794B1B789BB2023B9AB22423FB18101C191C00F063FCFFE7C046714B1B78DBB201229343DAB26E4B1A704623FB184622DF
:401E8000B9183E22BA18098812888A181A804623FA183C23FB1812881B889A4200D242E7F6E0644B1B78022B00D0F1E04623FB1800221A80E3E03B6C181CFFF7EFF8031CFF
:401EC0001A1C0C23FB181A803B6C02333B643B6C181CFFF7E3F8031C1A1C0C23FB185A803B6C02333B643B6C181CFFF7D7F8031C1A1C0C23FB189A803B6C02333B643E2390
:401F0000FB181B88062B30D10C23FB1802229A750EF040F90C23FB1859884B4B1A785B781B021A4300231204120C1B0C1B041343181C0EF0D1F8031E07D1444B0C22BA18FF
:401F400013CA13C313CA13C387E0414B1B6884225200101C00219847354B1B78DBB202229343DAB2324B1A7077E03E23FB181B88082B00D071E00C23FB1801229A753B6C57
:401F8000181CFFF78BF8031C1A1C0C23FB18DA803B6C02333B644423FB1800221A8033E04423FB181A882549131C5B009B185B00CB189A880C23FB18DB889A421DD14423C2
:401FC000FB181A881D49131C5B009B185B005B5A002B12D14423FB181A881849131C5B009B185B000C22BA180220C91813180422081C191C02F00DF80BE04423FB181A88AB
:402000004423FB1801321A804423FB181B88022BC6D9094B1B78191C084A0B1C5B005B185B00D3189B881A1E0A4B9A4214D014E09C210020752100209B210020E40B0020E5
:40204000FEFF00000118000088210020F40F00205421002012180000C0460F4B1B78DBB201229343DAB20C4B1A704623FB184622B9183E22BA18098812888A181A80462302
:40208000FA183C23FB1812881B889A4200D212E7BD4613B090BDC0469C21002080B582B000AF021CFB1D1A70FB1D1B78002B06D0354B1B780133DAB2334B1A7002E0324B06
:4020C00000221A7005E0304B1B780133DAB22E4B1A702D4B1B78022B19D82B4B1B78191C2A4A0B1C5B005B185B009A5A284B1B889A42E8D3244B1B78191C244A0B1C5B008B
:402100005B185B009A5A224B5B889A42DBD81E4B1B78022B2FD81C4B1B78181C1D491B4A031C5B001B185B00087849780902084300210004000C090C09040143985AD318C2
:402140005B881B04034300221A1C081C111C0DF05DFF031E15D0104B1B680A22FF32101C002198470D4B1B78DBB202229343DAB20A4B1A7005E00A4B04221A70002000F0D1
:40218000E5F8BD4602B080BD9B210020E40B00207821002088210020542100209C2100207521002080B582B000AF3B1C00221A803B1C00225A80114B1B78002B09D1104BF0
:4021C0005B8801339AB23B1C1A800E4B1A893B1C5A803B1D3A1C12681A603A1D002311880904090C1B0C1B040B43528812041B041B0C1343181CBD4602B080BD9B21002065
:402200007C210020E40B002080B58AB000AF78600823FB1800225A80494B1B78042B00D08BE0484B1B78DBB21A1C0223134000D183E01E23FB187A6812891A807B681A7B99
:402240000823FB181A750823FB187A6812881A800823FB181B7D012B04D12623FB1804221A8003E02623FB1812221A807B685B683B622423FB1800221A804EE03B6A181CDD
:40228000FEF70CFF031C1A1C0823FB185A803B6A02333B620823FB181B7D022B15D10823FB183A6A0433111C1022181C01F0B1FE3B6A10333B62244B1B78012B23D1082333
:4022C000FB18181C00F0F8FB1DE03B6A181CFEF7E5FE031C1A1C0823FB189A803B6A02333B62194B1B78002B04D10823FB18181CFEF710FF144B1B78012B04D10823FB1844
:40230000181C00F0D9FB2423FB182422B9182622BA18098812888A181A802423FA181E23FB1812881B889A42A8D3064B1B78DBB201229343DAB2034B1A70BD460AB080BDAA
:40234000752100209C2100209B21002080B584B000AF021CFB1D1A700C23FB1800221A800C23FB1800225A80494B1B78012B17D0FB1D1B78002B0DD0454B1B780133DAB20A
:40238000434B1A70424B1B78012B09D1FB1D00221A7005E03E4B00221A70FB1D01221A703B4B1B78012B0CD1FB1D1B78181C00F0C1FA031C1A1C0C23FB181A60FB1D012244
:4023C0001A70334B1B78012B06D0FFF7EBFE031C1A1C0C23FB181A600C23FB181A882D4B1B889A4215D90C23FB181A88294B5B889A420ED80C23FB185A88264B1B889A4276
:4024000007D30C23FB181A880C23FB185B889A4203D91F4B1B78012BA6D91D4B1B78012B21D81D4B0C22B9181A785B781B021A4300231204120C1B0C1B041343181C0DF0CF
:40244000CFFD031E21D0154B1B6885225200101C00219847124B1B78DBB202229343DAB20F4B1A7011E00F4B05221A700B4B1B681222FF32101C00219847094B1B78DBB2B5
:4024800002229343DAB2064B1A70BD4604B080BD9B2100207821002088210020542100209C2100207521002080B500AF244B1B78DBB21A1C022313403FD0224B1B78022BE4
:4024C00017D002DC012B05D037E0032B1DD0042B27D032E01B4B02221A700020FFF7CCFA174B1B78DBB201229343DAB2144B1A7023E00120FFF7C0FA114B1B78DBB2012259
:402500009343DAB20E4B1A7017E00120FFF7C6FD0B4B1B78DBB201229343DAB2084B1A700BE00120FFF712FF054B1B78DBB201229343DAB2024B1A70C046BD4680BDC04682
:402540009C2100207521002080B582B000AF7860074B1B78DBB21A1C0223134005D07B689B790A2B01D1FFF79FFFBD4602B080BD9C21002080B582B000AFBB1D00221A80DA
:4025800060E0BB1D1B889A1C3249131C5B009B185B005B5A002B50D13B1D00221A8040E0BB1D1B882C4A1B01D31808335A683B1D1B881B01D31800221A80BB1C00221A801C
:4025C00019E0BB1D1B88244A1B01D31808335A683B1D1B881B01D318D968BB1C1A88131C5B009B189B00CB1800221A80BB1C1A88BB1C01321A80BB1D1B88174A1B01D318C2
:4026000008335A683B1D1B881B01D3189B7A9BB2BA1C12889A42D4D33B1D1A883B1D01321A80BB1D1B880C4A1B01D31808335B789BB23A1D12889A42B2D3BB1D1A88BB1D50
:4026400001321A80BB1D1B88002B9AD0BD4602B080BDC046E40B00201C0C002080B584B000AF78600D23FB1800221A700E23FB1800221A8046E00E23FB181B88284A1B01B4
:40268000D31808331B78022B35D10E23FB181B88234A1B01D3185A687B680433101C191C102201F0A7FC031E25D10E23FB181B889A1C1C49131C5B009B185B005B5A002B3F
:4026C00019D10E23FB181B889A1C1649131C5B009B185B007A68CB18111C0422181C01F098FC114B1B780133DAB20F4B1A700D23FB1801221A700E23FB181A880E23FB18DE
:4027000001321A800E23FB181B88002B04D10D23FB181B78002BAED0BD4604B080BDC0461C0C0020E40B00209B21002080B584B000AF021C3960BB1D1A800D23FB18002293
:402740001A70774B1B68002B0FD0764B1B88BA1D12889A4206D1724B1B683A681288013A92B21A806E4B00221A600E23FB1800221A80ADE00C23FB1800221A703B689B7DD8
:40278000022B28D1BB1D1B88674A1B01D31808335A680E23FB181B881B01D3181B7A022B19D1BB1D1B88604A1B01D31808335A680E23FB181B881B01D3185A683B68063374
:4027C000101C191C102201F015FC031E03D10C23FB1801221A703B689B7D012B28D1BB1D1B88514A1B01D31808335A680E23FB181B881B01D3181B7A012B19D1BB1D1B8852
:40280000494A1B01D31808335A680E23FB181B881B01D3185A683B680633101C191C022201F0E8FB031E03D10C23FB1801221A700C23FB181B78012B43D1BB1D1B883A4A24
:402840001B01D31808335A680E23FB181B881B01D3181B88002B34D1BB1D1B88324A1B01D31808335A680E23FB181B881B01D3183A6892881A80BB1D1B882B4A1B01D3185D
:4028800008335A680E23FB181B881B01D3183A6892785A72BB1D1B88234A1B01D31808335A680E23FB181B881B01D3189A1C1C4B1A601C4BBA1D12881A800D23FB1801226C
:4028C0001A700E23FB181A880E23FB1801321A80BB1D1B88144A1B01D31808335B789BB20E22BA1812889A4205D20D23FB181B78002B00D13EE70A4B1B68002B0CD0084BA4
:402900001A680A4B1B78181C0949031C5B001B185B00CB185B881380BD4604B080BDC046181000201C1000201C0C00209B210020E40B002080B584B000AF021CFB1D1A70AD
:402940000823FB1800221A800823FB1800225A80FB1D1B78002B2DD0524B1B880133524A1288524912018A1808325278934206D24C4B1B8801339AB24A4B1A8023E04A4B24
:402980001B88013309D1484B1B8801339AB2464B1A80444B00221A8015E0454B1B780133DAB2434B1A703F4B1B8801339AB23D4B1A8008E03C4B00221A803A4B00221A800F
:4029C000FB1D01221A70384B1B88384A1B01D31808335B789AB2334B1B889A421FD9324B1B88324A1B01D31808335A682D4B1B881B01D3181B8801339AB20823FB181A8057
:402A0000294B1B88294A1B01D31808335A68254B1B881B01D3185A880823FB185A800823FB181A88234B1B889A4215D90823FB181A88204B5B889A420ED80823FB185A8829
:402A40001C4B1B889A4207D30823FB181A880823FB185B889A420CD9134B1B88134A1B01D31808335B789AB20E4B1B889A4200D96EE70C23FB180822BA1812681A600C23AE
:402A8000FA18002311880904090C1B0C1B040B43528812041B041B0C1343181CBD4604B080BDC04616100020141000201C0C00209B2100207821002080B584B000AF786081
:402AC0000E23FB1800221A700F23FB1800221A70BBE00D23FB1800221A707B681B7D022B38D1674B1B88674A1B01D31808335A68654B1B881B01D318D9680F23FB181A783E
:402B0000131C5B009B189B00CB181B7A022B21D15B4B1B885B4A1B01D31808335A685A4B1B881B01D318D9680F23FB181A78131C5B009B189B00CB185A687B680433101C0A
:402B4000191C102201F056FA031E03D10D23FB1801221A707B681B7D012B38D1484B1B88484A1B01D31808335A68474B1B881B01D318D9680F23FB181A78131C5B009B18BB
:402B80009B00CB181B7A012B21D13D4B1B883D4A1B01D31808335A683B4B1B881B01D318D9680F23FB181A78131C5B009B189B00CB185A687B680433101C191C022201F0D9
:402BC00019FA031E03D10D23FB1801221A700D23FB181B78012B31D1294B1B88294A1B01D31808335A68284B1B881B01D318D9680F23FB181A78131C5B009B189B00CB185B
:402C00001B88002B1AD11E4B1B881E4A1B01D31808335A681C4B1B881B01D318D9680F23FB181A78131C5B009B189B00CB187A6852881A800E23FB1801221A700F23FB18F3
:402C40001A780F23FB1801321A700D4B1B880D4A1B01D31808335A680B4B1B881B01D3189B7A0F22BA1812789A4205D20E23FB181B78002B00D12CE7BD4604B080BDC04635
:402C8000141000201C0C00201610002080B584B000AF021CFB1D1A700E4B1B68DAB20F23FB1810218A431A70FB1D1B781B01DBB210221340D9B20F23FB180F22BA181278FF
:402CC0000A431A70034B0F22BA1812781A60BD4604B080BD0001044080B584B000AF021CFB1D1A700D4B1B68DAB20F23FB187F210A401A70FB1D1B78DB01D9B20F23FB1820
:402D00000F22BA1812780A431A70044B0F22BA1812781A60BD4604B080BDC0460003044080B500AF00F0A6F9BD4680BD80B500AF064B064A1268802109060A431A6000F07F
:402D400033F800F039F8BD4680BDC0460000244080B500AF064B1B78002B04D1FFF7E0FF034B01221A70FFF7E1FFBD4680BDC0462010002080B500AF092000F0F3FB00F07E
:402D800021F8074B064A1268520052081A60054B00221A60092000F0F9FBBD4680BDC04600002440880F244080B500AF092000F0C5FBBD4680BDC04680B500AF00F0E2F968
:402DC000BD4680BD80B500AF00F002FABD4680BD80B582B000AF00237B60144B1A68144B1B689A421DD0124B1B6801333B603B68104A934201D100233B600F4A3B68D318EB
:402E00001B78DBB27B600A4B3A681A600B4B1B680422134005D1094B084A126804210A431A607B68181CBD4602B080BDB0310020A821002001080000AC290020C80F2440C6
:402E400080B582B000AF0D4B1B683B600C4B1B683A689A4205D30A4B1B683A68D31A7B6007E0074B1B683A68D31A064A944663447B607B68181CBD4602B080BDB031002053
:402E8000A82100200108000080B500AF092000F069FB114B1A68114B1A60114B00221A70104B104A1268802149020A431A600D4B0C4A12680C490A401A600C4B0C4A1A60B9
:402EC0000C4B0C4A126804210A431A60092000F035FBBD4680BDC046A8210020B0310020AD31002004032440FFFFFEFFC00F2440ED0F0000C80F244080B584B000AF786088
:402F00001D4B1A681D4B1B689A4209D11C4B1B681F221340082B03D01A4B7A681A6028E0154B1B680133FB60FA6880231B019A4201D10023FB60C046104B1B68FA689A42D8
:402F4000FAD0114B02221A607B68D9B20F4AFB68D3180A1C1A70084BFA681A600C4B1B680222134005D10A4B094A126802210A431A60BD4604B080BDA4210020A0210020AC
:402F80000802244040022440800F2440AC210020880F244080B584B000AF786039600023FB6009E07A68FB68D3181B78181CFFF7A3FFFB680133FB60FA683B689A42F1D30C
:402FC000BD4604B080BDC04680B582B000AF0E4B1B683B600D4B1A683B689A4205D30B4B1A683B68D31A7B6008E0084B1A683B68D31A80221201944663447B607B68181C61
:40300000BD4602B080BDC046A0210020A421002080B500AF092000F0A5FA0F4B1A680F4B1A600F4B0E4A126802218A431A600D4B0C4A1268802149020A431A60094B094A6E
:40304000126809490A401A60084B094A1A60092000F074FABD4680BDA0210020A4210020880F244004022440FFFFFEFF800F2440F307000080B500AF284B294A1A60294B0E
:4030800000221A60284B01221A60284B284A1A60284B07221A60284B00221A60274B01221A60274B224A1A60264B00221A60264B264A1A60092000F055FA0920032100F06C
:4030C000E9F9234B0920191C00F0BEF9214B00221A60214B00221A60204B00221A60204B00221A601F4B04221A601F4B00221A601D4B1B689AB21D4B1A801D4B00221A6010
:403100001C4B00221A601C4B00221A701B4B00221A601B4B00221A60BD4680BD000024400F00000240002440480024400003244007000080040324401003244044002440F8
:403140000002244004022440500024400400000281370000880E2440C80E2440480F2440080F2440C80F2440880F244022100020B0310020A8210020AD310020A42100204E
:40318000A021002080B500AF0B4B0B4A12680B490A40902109040A431A60094B084A126808490A40902109050A431A60064B074A12881A60BD4680BD00000240FFFF0FFF7D
:4031C00000010240FFFFFFF0880F24402210002080B500AF104B104A126810490A401A600F4B1A6880235B0213405A1E9341DBB2181C00F06DF80B4B0A4A12680A490A40D0
:403200001A600A4B1B689AB2E423DB0013409AB2074B1A80BD4680BD00000240FFFF0FFF5000244000010240FFFFFFF0880F24402210002080B582B000AF092000F092F90A
:40324000FFF7FEFD031E07D0092000F077F9FFF7BFFD031C7B6008E00E4B1B687B600E4B04221A60092000F069F90B4B1A68D8239B0013403B60084BD82292001A603B68C5
:403280001B027A6813437B607B68181CBD4602B080BDC04640032440C00F244080B584B000AF78600023FB6009E07A68FB68D3181B78181CFFF720FEFB680133FB607A68BF
:4032C000FB68D3181B78002BEFD1BD4604B080BD80B584B000AF021CFB1D1A700E4B1B68DAB20F23FB1840218A431A70FB1D1B789B01DBB240221340D9B20F23FB180F2247
:40330000BA1812780A431A70034B0F22BA1812781A60BD4604B080BD0001044090B58BB000AF78602723FC1800F023FA031C2370184B1A680C23FB181A60174B1A680C23F4
:40334000FB185A607B68033B144AD35C1A1C0C23FB189A60124B1A680C23FB18DA601C23FB18104A1A600C23FA181C23FB185A600D4B1C22BA181A600C4B0D4A1A600A4B33
:403380001B682723FB181B78181C00F0F6F9BD460BB090BD08010B4000010B405868010030001040B6EA000008001040040010401700008080B584B000AF78600023FB604A
:4033C000154B154A126801210A431A60134B144A1A60144B134A1268802109020A431A607B68002B12D01023FB600CE0012000F00FF900F019F8031E02D00023FB6005E0F2
:403400007B68013B7B607B68002BEFD1FB68181CBD4604B080BDC04660F02E4078002E400220000010002E4080B582B000AF054B1B68012213407B607B68181CBD4602B0E9
:4034400080BDC0460C002E4080B584B000AF021C3960FB1D1A7080239B05FB60FB1D1B781F2B02D9002000F0A5F8FB1D1B7810339B00FA68D3181B68BB60FB1D1B781033A1
:403480009B00FA68D3183A681A60BB68181CBD4604B080BD90B587B000AF021CFB1D1A70BB1D0A1C1A70BB1D1B78032B02D9002000F080F8FB1D1B781F2B02D9002000F06E
:4034C00079F8FB1D1B7803221340DB0006337B611323FC1800F04DF9031C2370FB1D1B789B08DBB29B00144A944663441B68FB607B6903229A40131CDA43FB681340FB60A3
:40350000BB1D1A787B699A40131CFA681343FB60FB1D1B789B08DBB29B00074A94466344FA681A601323FB181B78181C00F025F9BD4607B090BDC04600E400E080B582B0A7
:4035400000AF021CFB1D1A70054BFA1D12781F210A40012191400A1C1A60BD4602B080BD00E100E080B582B000AF021CFB1D1A70054BFA1D12781F210A40012191400A1CB1
:403580001A60BD4602B080BD80E100E080B582B000AF021CFB1D1A70054BFA1D12781F210A40012191400A1C1A60BD4602B080BD80E200E080B582B000AF021CFB1D1A7070
:4035C00001BEBD4602B080BD80B582B000AF786009E00C4B1B68181C00F0C2F87B680A4A944663447B607A6880231B029A42F0D8064B1B687A685343181C00F0B1F8BD4696
:4036000002B080BD380C00200080FFFF300C002080B582B000AF021CBB1D1A80BB1D1B88044A12785343181C00F09AF8BD4602B080BDC046340C002090B583B000AFFC1D80
:4036400000F097F8031C2370074B074A126804218A431A6030BFFB1D1B78181C00F08DF8BD4603B090BDC04610ED00E080B500AF0E4B0E4A126801218A431A600B4B0B4A44
:40368000126802218A431A60094B094A126830218A4310210A431A60054B054A126807218A4301210A431A60BD4680BD00F02E4000FF2E4080B500AF0E4B0E4A12680221BB
:4036C0008A431A600C4B0C4A126807218A4302210A431A60084B084A126830218A4320210A431A60034B034A126801210A431A60BD4680BD00F02E4000FF2E4080B500AF4B
:40370000FFF7B4FF044B044A1268802109060A431A60BD4680BDC04600F02E4080B584B000AF78600C4B1B6801221340FB607B68002B02D0012B03D005E0FFF797FF06E0DD
:40374000FFF7B8FF03E00020FFF734FFC046FB68181CBD4604B080BD00F02E40000000000230800803D00138FDD1C046C046C0467047EFF3108072B6704780F31088704711
:4037800080B582B000AF344B1B68002B02D0324B1B689847314B1B680422134028D0304B1B6801337B607B682E4A934201D100237B602D4B1B687A689A4206D12B4B2B4A1D
:4037C000126804218A431A600FE0294B1B68D9B2284A7B68D3180A1C1A70214B7A681A60254B1B681F221340D9D1244B04221A60234B1B68022213402BD0224B1A68224BBB
:403800001B689A4215D0204B1B6801333B603A6880231B019A4201D100233B601B4B1C493A688A181278D2B21A60174B3A681A6006E0184B174A126802218A431A6005E032
:40384000154B1B681F221340082BD6D1134B02221A60BD4602B080BD24100020CC0F2440B031002001080000A8210020C80F244040032440AC29002008032440C00F24400A
:403880008C0F2440A4210020A021002040022440AC210020880F244008022440800F244080B582B000AF78600A1CBB1C1A80BB1C1A887B681A60BD4602B080BD80B582B0A0
:4038C00000AF78600A1CBB1C1A80BB1C1A887B681A60BD4602B080BD80B584B000AF494B1B78DBB21B02484A1278D2B21343FB60464B1B78DBB21B02454A1278D2B21343E7
:40390000BB60BB68434A934207D1FB68072B04D1414BBB600423FB6009E0BA68D4231B019A4204D1FB68042B01D13B4BBB603B4BBA681A603A4BFA681A603A4B1B78DBB280
:403940001B02394A1278D2B21343FB60FA6880239B019A4202D0FB68002B01D1334BFB60334BFA681A60334B1B78DBB21B02324A1278D2B21343FB60FB68304A934206D088
:40398000FB682F4A934202D0FB68052B01D12D4BFB602D4BFA681A602C4B1B681B097B602B4B1B68AA2B29D17B68012B26D9214B1B78DBB20E2B21D1264B1B78DBB29BB294
:4039C0001B0299B2244B1B78DBB29AB2BB1C0A431A80224BBA1C12881A60214B1B78DBB29BB21B0299B21F4B1B78DBB29AB23B1C0A431A801C4B3A1C12881A60BD4604B092
:403A000080BDC046D9F0FF0FD8F0FF0FDFF0FF0FDEF0FF0F580B0000580D00006C002E4074002E40DBF0FF0FDAF0FF0F0220000078002E40DDF0FF0FDCF0FF0F0F0F0000CD
:403A400005050000050F000080002E40EC0F00F0E00F00F06DF2FF0F6CF2FF0F84002E406FF2FF0F6EF2FF0F94002E4080B582B000AF021CBB1D1A80BB1D1B88181CFFF77B
:403A8000C7FDBD4602B080BD80B582B000AF78607B68181CFFF798FDBD4602B080BDC04680B500AF00F0DEF8BD4680BD80B500AF00F0E2F8BD4680BD80B500AF00F0DCF848
:403AC000044B181C00F09CF8032000F0A5F8BD4680BDC0468D3C000080B500AF024B181C00F07CF8BD4680BD8D3C000080B500AF0223FF33181CBD4680BDC04680B582B012
:403B000000AF78602B23181CBD4602B080BDC04680B582B000AF78602B23181CBD4602B080BDC04680B582B000AF78602B23181CBD4602B080BDC04680B582B000AF7860C6
:403B40002B23181CBD4602B080BDC04680B582B000AF78602B23181CBD4602B080BDC04680B582B000AF78602B23181CBD4602B080BDC04680B582B000AF78602B23181C8B
:403B8000BD4602B080BDC04680B582B000AF78602B23181CBD4602B080BDC04680B500AF2B23181CBD4680BD80B582B000AF021CFB1D1A702B23181CBD4602B080BDC046AF
:403BC00080B582B000AF786039602B23181CBD4602B080BD80B500AFBD4680BD80B582B000AF786000F048F87B68181C00F008F8032000F011F800F035F8BD4602B080BD56
:403C000080B582B000AF7860024B7A681A67BD4602B080BD0000002090B585B000AF021CFB1D1A700623FB600B23FC18FFF7A1FD031C23700A4B0A4A1268C0218A43111CE1
:403C4000FA1D1078FA689040021C0A431A600B23FB181B78181CFFF790FDBD4605B090BD0CE400E080B500AF024B802252011A60BD4680BD00E100E080B500AF024B8022BA
:403C800052011A60BD4680BD80E100E080B500AF12F008FBBD4680BD002243088B4274D303098B425FD3030A8B4244D3030B8B4228D3030C8B420DD3FF22090212BA030C77
:403CC0008B4202D31212090265D0030B8B4219D300E0090AC30B8B4201D3CB03C01A5241830B8B4201D38B03C01A5241430B8B4201D34B03C01A5241030B8B4201D30B03C9
:403D0000C01A5241C30A8B4201D3CB02C01A5241830A8B4201D38B02C01A5241430A8B4201D34B02C01A5241030A8B4201D30B02C01A5241CDD2C3098B4201D3CB01C01AC4
:403D4000524183098B4201D38B01C01A524143098B4201D34B01C01A524103098B4201D30B01C01A5241C3088B4201D3CB00C01A524183088B4201D38B00C01A52414308AB
:403D80008B4201D34B00C01A5241411A00D20146524110467047FFE701B5002000F0FCF802BDC0460029F7D003B5FFF775FF0EBC4243891A1847C04603460B437FD40022BC
:403DC00043088B4274D303098B425FD3030A8B4244D3030B8B4228D3030C8B420DD3FF22090212BA030C8B4202D31212090265D0030B8B4219D300E0090AC30B8B4201D3A0
:403E0000CB03C01A5241830B8B4201D38B03C01A5241430B8B4201D34B03C01A5241030B8B4201D30B03C01A5241C30A8B4201D3CB02C01A5241830A8B4201D38B02C01A0C
:403E40005241430A8B4201D34B02C01A5241030A8B4201D30B02C01A5241CDD2C3098B4201D3CB01C01A524183098B4201D38B01C01A524143098B4201D34B01C01A5241CE
:403E800003098B4201D30B01C01A5241C3088B4201D3CB00C01A524183088B4201D38B00C01A524143088B4201D34B00C01A5241411A00D201465241104670475DE0CA0F46
:403EC00000D04942031000D34042534000229C4603098B422DD3030A8B4212D3FC22890112BA030A8B420CD3890192118B4208D3890192118B4204D389013AD0921100E0E6
:403F00008909C3098B4201D3CB01C01A524183098B4201D38B01C01A524143098B4201D34B01C01A524103098B4201D30B01C01A5241C3088B4201D3CB00C01A5241830828
:403F40008B4201D38B00C01A5241D9D243088B4201D34B00C01A5241411A00D20146634652415B10104601D34042002B00D54942704763465B1000D3404201B5002000F021
:403F80000BF802BD0029F8D003B5FFF715FF0EBC4243891A1847C0467047C046014B18687047C046BC0F00200E4B70B500251E1C0D4CE41AA410A54204D0AB00F35898478C
:403FC0000135F8E712F062FC084B00251E1C084CE41AA410A54204D0AB00F35898470135F8E770BD986801009868010098680100A068010030B50024944208D0035D651C1E
:404000000C5DA34201D0181B02E02C1CF4E7002030BD002310B5934203D0CC5CC4540133F9E710BD031C8218934202D019700133FAE77047134A1088810703D08107890F46
:40404000401A001D11791030484381B25088820703D08207920F801A001D800040180A494030098980B2CA0701D0503080B2890706D504495422091F09785143081880B2BC
:4040800070470000460C00203410002010B501F043FF10BD10B501F055FF10BD10B500F055FA10BD10B50749044609780220002907D1204601F09EFF002802D120460BF0B3
:4040C0007BF910BDD60D002070B504460120002C12D02368002B0FD0616800290CD0074D06222889208118462968FFF792FF6968606809780170002070BD000034100020FB
:40410000FFB585B0002768460E9D07734F481C460078002802D0082009B0F0BD10990F9801900095029105A807C800F001F90028F2D16946264603AB84460873002C19D026
:40414000002115E08A00B75A082F09D990198078002805D0083FB7521878401C187005E0002914D00027B75290198770491CC9B2A942E7D360460028CED10F98002809D0B7
:40418000109901F079FA002804D00120C4E701208446EFE701F0D6FE2D480021416081600599016021888180022D07D3A1798171A17AC171A1890181218A418100211EE049
:4041C000481C19E082008B00A75AE65ABE46BE4211D26F463E80B4461E190296B678BE7001967646E6521719029EBB78B3706646A652019EBE70401CA842E3D3491CA94227
:40420000DED3134822460C3000906846037B0799069800F015F90028B8D168460B4C007B60700B480C3001F0BDFE0028AED1084907480C3108F08EF80028A7D108F0A8F860
:404240000028A3D10121217066E70000400C002028100020F8B5054633480E460078002802D002242046F8BD002E5BD000242F49002D16D02A89D0070DD02868002808D065
:4042800003881B3BE12B04D24088FB2801D81B2801D2012409E0900707D56868002804D1F7E70020088108604860002CDAD11F482F8907811C481B21801D0180418004215A
:4042C000017119490020891C0870F80705D016480622801D2968FFF79CFE1449B80703D56A681148127882700F480D46801D0860001F486001F0A4FE0B48801D01F092FE80
:4043000028890EF0DFF928890EF014FB03461033FFF790FE1F21C018890140180249308088809FE701249DE7400C002034100020FFB58446384F1C460020BB883F78054660
:4043400002460646002F11D100290ED0029999420BD36146002908D0002C06D00A99002906D02E4B0B99994202D2012004B0F0BD002144E0AB001F19BF78002F3BD0E35ACD
:40438000002B38D07B43591889B22B0000F04AF8050410161C253100A7782388BC46FF27233BEB37BB4222D26346032B1FD322E0A388002B1FD0302B19D31CE02389002BD5
:4043C00019D0282B13D316E0A289002A13D01346134F233BBB420AD20DE0268A002A0AD033460F4F233BBB4201D2964203D901200EE0002001E000280AD16D1CEDB2099B42
:404400009D42B7D31C2463435B1802998B42ACD89642AAD8AAE70000400C002079020000BAFF000030B47446641E2578641CAB4200D21D46635D5B00E31830BC1847000083
:40444000FFB583B0002469460C801F4606468C80002806D00598002803D004983043800701D0012466E0002FFBD03449049809888842F6D3FFF730FBFFF718FB00F012FC72
:40448000002855D100F062FD002851D12C49084601F026F905042D0C4AD12A480499066081800021C18007810C98007AC00704D0684601F060FD040007D10C98007A80074F
:4044C00003D501A801F060FD0446BF1DFEB2002C20D13146059800F05DF804001AD10EF037FA040016D16A461088928808368518144AF1B29088D288AEB29319984207D328
:40450000401B801A80B201F0DBFB050007D000E0FF25012400F05EFA002D04D008E0F8B200F01CF9F6E700F081FA07490120087000F0CAFB204607B0F0BD0000440C002088
:4045400081460000401000204C0C002010B503480078012801D101F055FA10BD4C0C002070B5084B0446DA889E8800205518B54206D81D68AA182260DA885118D98070BDBE
:40458000032070BD40100020014800897047000040100020F0B587B007460D4600208900009006916846FFF7DBFF844600285DD1304800990160002117E02E4B88001A684B
:4045C0000629115406D22C4C0419667882185670628805E0C419203CA67A8218567022891B68C018491C4280C9B2A942E5D300242DE0601CC2B2059025E01E4FA30039683D
:404600009600581840887118039604904E88B04217D938466F46FE80B6464F786E4677710297049F4F800168039F5E18767879184E700168764659184E800068029F1818C8
:404640004770521CD2B2AA42D7D30598C4B2AC42CFD36046002809D168460699FFF780FF8446002802D1054900980860604607B0F0BD0000500C0020C0680100540C0020AC
:404680007047000010B5002809D005494A68002A05D0011F08788000105801F0BFFA10BD500C002010B50446FFF76EFFC0B2801DA0420CD307484068002808D0A100405891
:4046C00001F01EFA002801D00470001D10BD002010BD0000500C0020F8B516460D460446FFF752FFC0B2801DA04203D20020C0430090F8BDB2B2E9B2684601F027FA00997E
:40470000481C03D0024AA000526811500098F8BD500C0020F8B50746FFF736FF801DC6B20A49002005460C680DE06178002907D06188B94202D32078FFF7B4FF002804D149
:40474000241D6D1CEDB2B542EFD3F8BD500C002010B5002801D0FFF795FF10BD70B506460948002504680BE06178002905D062882078121D0023FFF7AFFF241D6D1CEDB2DB
:40478000B542F1D370BD0000500C0020FFB581B00A9F16000C4620D000F0F2F8054604281BD0002F0CD03846FFF7B4FF20492A0151184860002810D03A460499FFF729FC5C
:4047C0001B4928010E504618778101980570200406D47D20C000444304E0FF2005B0F0BD6404640C00F0BAF80746042807D000F04FFAA0420BD800F04BFA201A03E02046A3
:4048000000F0AAFA0020F06035720020E6E700F03FFA009000F0B6FA00980121001B009000F0ECF802493A0151180098C860E6E74C100020F8B5060116483418217A042930
:4048400003D0E068002802D017E00020F8BD00F01FFA054600F096FA00F0A0F804280CD001010C480F18F8680021451900F0C6F80020F860284600F06FFA6068054D002868
:4048800001D0FFF765FF042020720020A8516081E060DAE74C100020FEB500266A46304601232549050169180D7A042D02D0C96800291BD000211154401CC0B20428F0D376
:4048C00000246846005D002830D01B48210108184189476805680291002101604160042241810272C160002E02D015E01354E3E700F054F804280ED001010F48081801902D
:40490000C6680021304600F079F801980021C160304600F021FA0126002D07D038460299A847002F02D03846FFF712FF641CE4B2042CC6D3FEBD00004C1000200EB5002043
:4049400005216A460090118150810348694600680EF063FE0EBD0000580C0020074A0020010189180B7A042B02D0C968002903D0401CC0B20428F3D3704700004C100020A4
:404980000549002002015218127A042A03D0401CC0B20428F6D370474C10002030B50A4B04200A4C00210A011219157A042D06D0D268002A03D09A4201D808461346491C00
:4049C000C9B20429EFD330BDFFFF00004C1000207047000030B50020074C05460423020111190B72A5504D60401C4D81C0B2CD600428F4D330BD00004C10002030B5094CBA
:404A000000231A011219157A042D04D0D568002906D02D18D5605B1CDBB2042BF1D330BD2D1AF7E74C100020002070471CB5002469460C70142001902346054A05480EF07F
:404A4000F1FD04480068401C00D1FF2420461CBDA94A0000580C00203EB5124A0146FF2000230124126800290DD0012914D0042908D104206946009308814B8110460EF0EE
:404A8000CCFD80B23EBD6846009304814381694610460EF0BDFDF4E768460093048143816946EBE7580C002070B545890468416800890300FFF7B6FC08280509091E222864
:404AC0002628002006F0CEF91EE0022908D0C8B22A4621460CF09AFE2046FFF739FE13E002202A4621460CF091FE2946204600F00DF809E000200EF08FFA05E02046FFF700
:404B0000CBFE01E0FFF766F8002070BD014B0022DB6818475C0C002070B5448905680089022803D0032809D0FF2070BD2246094C0023A46829460120A04708E0FFF7AAFA78
:404B4000241DA2B200232946022007F0B6FA002070BD00005C0C0020704700000248002141600180418070475C0C002070B50C46002186B016460391012802D0022859D11F
:404B800016E003A9012007F0EDFA01281BD1039D324621462846FFF73CFA0095287801900220694608814E816846FFF7B5FF41E0214D002B686809D0049004A9022007F022
:404BC000D1FA01281DD0022006B070BD002812D0298840182146FFF71CFA28880024801980B228806988091D884206D12C801348FFF792FF03E00320E6E788421AD96C6060
:404C000018E004986860E278A378110219430B4A698000231060E3565360032313815181A1788170E178C1706178417021780170042028800020C7E75C0C00208C100020E5
:404C40003EB515460C46022803D004280CD000203EBD0091019002206946088107484A8100680EF0DAFC07E00CF0D0FD044B0022DB6829462046984701203EBD580C0020EA
:404C80005C0C0020014AD160906070475C0C0020034801688068081A0A214843000970479810002010B5FEF707FF482204490548FFF7AFF903490120C870002010BD0000D1
:404CC000DC6801009C14002010B5FEF7E9FE10BD70B5134C2368002B08D0207B1149C20705D04008400020738868A08070BD88680B4AA18880B29268814203D90A4D691A21
:404D0000091802E0814202D2411A5118A160A080A0689842EAD30EF09DFC00F013F870BD98100020C0102E40FFFF000010B508461946FFF7A7FF10BD704710B5FFF780FFC6
:404D400010BD000003480021016041608160C1607047000098100020024610B5FF20002A0CD0FFF7EFFF064C0321207B0843207310010A21FFF716F82060002010BD0000C5
:404D80009810002000B504480A21806848430209FFF7D8FF104600BD981000200248007B8007C00F704700009810002010B54B490868002802DA4A4B01221A700222904339
:404DC0000860484800694549C00B4031096A0246C907C90F0A4259D0012000F0D5FA3F480E216C30FEF76AFD3E4820218430FEF765FD3C4814219C30FEF760FD3948FF21D8
:404E0000C131A430FEF75AFD3648FF212F31B030FEF754FD33483449BC30FEF74FFD31483249AC30FEF74AFD30492E48491CB430FEF744FD2B482E49B830FEF73FFD294829
:404E40002C49CC30FEF73AFD26482B490830FEF735FD24482949A830FEF730FD214828498830FEF72BFD1F4826498C30FEF726FD1C481921C9029030FEF720FDFEF72CFDCA
:404E8000FEF734FEC0B2022812D01FE000290BD0002101420AD0114801216030FEF70EFD0120FEF7F1FD97E70121F2E7FF2010BD15491648FEF702FD14481549001DFEF71C
:404EC000FDFC124800210830FEF7F8FC54200449C043891C0870002010BD000000F02E406C0C002000002E40320300002F3F00003102000010520000EC160000FA120000A5
:404F000031D000003AE300009956000080012E40F80F000070B50646581C80B245086D00002408E0304600F0A9F81055000A1119A41C4870A4B2AC42F4D3D80705D0D018D2
:404F40002038D15CC47FD454C17770BD10B5FF2000F01AFA0F49FF2048700E481021801D41800121417001700A490020C91C4870FFF71CFF04000AD100F02EF9072106480F
:404F8000FEF78EFC044807211830FEF789FC204610BD00006C0C0020CC112E4070B5002405465B1E0AE0284600F068F8010A161971702D1D1055A41CADB2A4B29C42F2DB87
:404FC0009C4203D1284600F059F8105570BD000070B500210A4D5B1E0AE0541864782602545C344346193480001D891C80B289B29942F2DB994202D1515C4019018070BDDB
:4050000000102E40F0B50599091FCFB200217E1E0BE0541864782502545C2C43164D45192C80001D891C80B289B2B142F1DBFC0712D01C78515C24020F4A0C4381180C805C
:405040009C785D78001D210280B2294384182180001D80B2D9780CE059781A7809021143054A84182180001DD9789B78090280B2194380180180F0BD00102E400149401852
:405080000088704700102E4010B50B490020487000F0A2F8002000F09DF9002000F08AF907210648FEF7FCFB044807211830FEF7F7FB002010BD00006F0C0020CC112E40A7
:4050C00010B50C48007801280FD100F08BFF00F0DDF8002804D10848016A490849000162054802213030FEF7E9FB02490020C91E087010BD6F0C002040F02E4010B50B4693
:40510000062812D006DC01280CD0032801D1FFF7BBFF10BD0A28FCD00B28FAD105480078107010BDFFF712FF10BD1146184600F06DF910BD720C0020F8B5244DAC6A01274A
:40514000A007234E002816DA307806280ED1286A384328621F480069F903084381B21D481030FEF7ABFB042000F00EF9174802212830FEF795FBE00718D000F075FF012853
:405180000FD1002000F0C2FF062000F0FDF81049FF20C91E48707078002802D1686B384368630A4801212830FEF77AFBE0050BD53078042802D1052000F0E6F80348FF2120
:4051C00001312830FEF76CFBF8BD000040F02E406F0C002000002E4010B503212348FEF76DFB0120FEF742FC20483038406A204C80076178800F890001431C480C38FEF729
:405200005DFB6078002808D0401E022181401820FEF7B8FEC000083800E0B82081B21548FEF74CFB1348032109021438FEF746FB10481149B830FEF741FB612189010F485B
:40524000FEF73CFB0D480321001FFEF737FB0C490C48FEF733FB0B480B496038FEF72EFB084801218838FEF729FB10BD70F02E40720C0020D8102E4090890000041E2E4097
:40528000FF0F000058122E4020900000044800684007400F022801D0002070470120704700010B4000B5FFF7F1FF002805D009480168C908C900016000BD0748016A490803
:4052C00049000162054801690122D2039143016100BD000000010B4040F02E4000002E400849087806280BD148780749002803D1486B400840004863C86A01221043C86269
:40530000704700006F0C002040F02E4001480078704700006F0C002002484078022800D0012070476C0C002000B50300FFF77AF8080D050D0B070507090D012000BD032082
:4053400000BD042000BD022000BDFF2000BD0000074A9168D26889B2064B92B2994204D105498A4201D1012100E000210170704780002E4033D000003FE300000149487084
:40538000704700006F0C002010B50446FEF78EFB072C01D9FF2C01D102480470FEF780FB10BD00006F0C002001494870704700006C0C002010B5064A012805D01921C90205
:4053C0001046FEF77BFA10BD1D21C902F8E7000090002E4010B50A4A141D012808D009491046FEF76BFA08492046FEF767FA10BD04491046891CFEF761FA0349491DF3E7EF
:4054000088002E4031D000003AE3000070B50C460546FEF76BFBC0B202280E49287804D0FF2810D04C280CD810E0FF2809D10A4AD0680004800F032801D0087807E0906909
:40544000000A553803E00878207070BD4F382070087070BD6E0C002000002E40F0B50122002834D0002932D00424420600D00524792342065B06D21800D0641C034600223F
:405480001EE00C2516466E43124D00277519AF72104F002ABB51696007D0661EB24209D10D4E86197606760E05E05E06760E8027BE1B00E080269B198919521C2E81D2B230
:4054C000A242DED303480549006B002288611046F0BD00002413002079020000780C002018B50020694608700A48006900280ED0132149014018047E684604704F21C90007
:40550000054800F059F8A04201D0012018BD002018BD0000780C0020A8100020074900200C2242435218927A012A05D0401CC0B20628F5D300207047012070472413002060
:40554000F8B50E000446154609D0194F19497868A04202D94018A04201D38D4201D90120F8BD31462046FEF745FD00281ED02A4631462046FEF74DFDE8B200210C224A43D2
:40558000D21913895568EE18A6420BD90126641B1B1B9672834209DA1469C01A044AC0B220329676491CC9B20629E7D30020F8BD2413002079020000034610B500200246EE
:4055C00004E09C5C2018521CC0B292B28A42F8D310BD000070B500F05FF8084C064A216907480D46FEF715FD05492846FFF736FFFFF776FF207070BD79020000780C00209E
:40560000A8100020002070470020054A002902D0012902D002E0906000E0D06000207047780C002070B5084C154608460549E26889182A46FEF7EDFCE0684019E06028B294
:4056400070BD0000A8100020780C00203EB50A226946FFF7E7FF044606480A2200686946FEF7C8FC002802D00020C0433EBD20463EBD00007C0C0020002802D0044A914207
:4056800001D2FF20704703494A6108610020704779020000780C0020024800218160C16070470000780C002070B5074C15460548A26880182A46FFF743FFA0684019A06058
:4056C00028B270BDA8100020780C002010B503490A220968FFF7E8FF10BD00007C0C002010B50F4A002313600E4A13600E4B18600E4801600E49012008600E49086000027F
:4057000090600E490C4808600D4914300860FF381538506000F0BCF800F0CAF9002010BDAC0C0020940C0020C00C0020C40C0020B00C0020A00C00206C140020A40C002060
:40574000B80C0020014610B50020002910D0094B1A689C685118A14209D25868196080188A0704D08A07920F891A091D196010BD002010BD940C0020F8B50024164E671E31
:40578000321F3D463168136806E01422624310328A58521C1BD0641C9C42F6D36A1C14D02C461422544322460C3288500C214843FFF7C8FF3168002808510AD03168002053
:4057C000103408517068401C70602846F8BD2546E4E73846F8BD0000A40C0020F3B50026F64381B000281BDB1E490968884217D80299002914D01B4F142204463F1D544340
:405800002546396810354859401C09D0FEF74EF938682F1F4159C359994203DBFEF740F93046FEBD214608310091465801590C20704308180C220299FEF7EBFB0948761C9A
:40584000001D0068C159B14200D100260549009A091D865008684159491C4151FEF720F90020FEBDA00C0020002803DB07490968884202D90020C043704704491422091D16
:40588000096850431030085870470000A00C0020F0B500200D4A451E0346171F50600FE014260146714314680E1DA3510C461668083433511668083435511468401C6350F9
:4058C00039688842ECD30020F0BD0000A40C0020F3B50026F64381B0002841DB2349096888423DD8029900293AD0204F142204463F1D54432546396810354859401C2FD0AC
:40590000FEF7D4F83868415900292BD0211D009146580C21005971430F46C1190C220298FEF777FB11480021001D0068761C00590C34C0190160416081600C48001D006884
:405940000159B14200D100260849009A091D865008684159491E4151FEF7A2F80020FEBD3046FEBDFEF79CF8FAE70000A00C0020FEB504460D4600201E49089E0860471EDE
:40598000009001900290002C11D0486885420ED2002A0CD0002E0AD0642E08D808460C3001681C2068430C18207A002801D03846FEBD0120226020721846FFF7DDFE606062
:4059C000401C13D06681A6810A4827610C3067610179A94200D205710021684601810A462846029B00F040F82846FEBD00202072DDE70000AC0C002038B50124009400F0EE
:405A000039F838BDFEB50027164EFF433D4600240EE01C20316860430818017A002906D04068FFF721FF002801D0254603E0641C3079A042EDDA681C12D01C2130684D4377
:405A40004419FEF733F869466068FFF741FF0546FEF726F8002DD9D1216868468847D5E7FEBD0000B80C002038B50024009400F001F838BD1FB500220C49541E0A60002894
:405A800011DB496888420ED808491C220C31096850430818406801A9FFF7A0FE401C02D0002004B010BD2046FBE70000AC0C0020F0B50021114A4D1E174611710C3F0B46CD
:405AC000BD6016E008461C2460431668041D355114680646235014680836A3551468361DA353044616680A34335318301468491C255078688142E5D30020F0BDB80C002055
:405B000038B500210091002811DB0F49097888420DDA0D4D04010C3529680859002807D0201D0818694600F06FF9002801D0002038BDFDF7BBFF28680F34015D491E015589
:405B4000FDF7AEFF009838BDC80C0020F7B582B0002502986E1E06602E48D21C024017462D4A2C4610460C380178106805E02301C358002B0FD0641CE4B28C42F7D3711C94
:405B800028D03401211D40180191039900F02AF900281FD101E02646F1E71F48016820460C300F521C480399026820460E30115419480399026820460F3011540398784397
:405BC00000F0A0F8144900280968085102D00024009011E001251AE00F48016801980818009900F02CF9002801D0012502E00098C0190090641CE4B203988442ECD3002DAB
:405C000005D10298066004480179491C0171284605B0F0BDFCFF0000D40C0020F8B50D4600216A468C461180002839DB23490978884235DA214B04010C3319680A59002A32
:405C40002ED020460C300B5A801C0E5C184670438018954224D3854222D2002006E007465F43BF18AF4206D0401CC0B2B042F6D36046002814D0114E271DC8190C366A46A3
:405C8000294600F006F900280AD168460088012808D030682946C01900F0D1F8002803D00120F8BD0020F8BDFDF700FF30680F34015D491C0155FDF7F3FEF3E7C80C002073
:405CC000F8B50F46002400F031F8002817D10C4900220B460C334A600EE021011D680E466A501D680C36AA53B61C1D680F31AA551D68641C6A54E4B2BC42EED31A71F8BD4F
:405D0000C80C002000280BD0C01C074A81085068890053884118994203D89368516018187047002070470000C80C0020F8B5064600200F4D009029700C0121466846FEF778
:405D40000FFC00280CD129460C3100980860301B001F84B221466846FEF702FC002801D0FF20F8BD6C800098A8600020F8BD0000C80C0020F8B5002827DB19490978884219
:405D800023DA174C05010C342168485900281CD028460C30085A009028460E300E5C401C0E5420682F1DC01900F064F800280CD12068002445590EE0094829460C300068F5
:405DC000C01900F03CF8002801D00120F8BD00982D18641CE4B2B442EED30020F8BD0000C80C002030B50D4604000BD0A800FFF789FF6060002805D000202570C0436080D2
:405E0000002030BD012030BD70B50D46040005D0002D03D00220205E002801DA012070BDFDF744FE0221615E60688900405828606088401E6080FDF733FE002070BD70B5BF
:405E40000D46040007D0002D05D002212078615E401E814201DB012070BDFDF727FE6088401C00B26080616880000D50FDF718FE002070BD10B5040009D02278002160681C
:405E8000FEF7D0F80020C0436080002010BD012010BDF0B500231D46002802D00224045F0AE00120F0BD46689F00F6598E4201D1012503E05B1CDBB29C42F4DA1570002045
:405EC000F0BD00000148007870470000DC0C00207CB505460024FEF7DDF8A8796946087000A8062229460130FEF793F80021684605F07EFA0C2806D0072806D01F2806D06B
:405F0000122806D006E0022404E0042402E0272400E0012420467CBD10B502280BD0032802D0042809D102E000F094F905E000F037FAFF2801D100F047FAFFF7E7F9FFF740
:405F4000F3F910BD10B500F067FAFFF7DFF9FFF7EBF910BD70B504460025FEF79BF8002C06D0A079012803D8214602F057FE00E00125284670BD01460120002902D0502080
:405F8000088000207047000001460120002905D003485422007850430880002070470000DE0C002010B502460D49FE204870032410460DF055FE002810D10DF0F9FD0028BD
:405FC0000CD106F02BF9002808D100F05BFC002804D105F0DDFC002800D10024204610BDDC0C002002480021018280210180704700102E4070B50025044600280ED0A07947
:4060000001280BD8FEF746F8A0790028204602D003F09CF903E003F071F900E00125284670BD0000014610B50120002904D006220248FDF7EEFF002010BD0000E80C0020C1
:4060400001460120002903D0087802490870002070470000DE0C002010B5FFF757F9012801D1FFF759F910BD0148007970470000A415002038B504460120002C20D06178DE
:4060800001291DD800290BD0FF25E535FEF702F80C4828180088C0B22070072803D00EE0FF25CD35F2E70020694608706846FFF74FF969460878012801D10820207000204E
:4060C00038BD000000102E40014A002192681047DC0C002008B500226B461A7026280CD0094A342852680BD0352805D1900703D50021352006F06EF908BD19462620F9E721
:40610000D007F9D03420F5E7DC0C00200149087170470000A4150020F8B504460120002C26D06178012902D92278092A20D8002905D0FF25E5352078092803D004E0FF2577
:40614000CD35F8E708202070FDF7A4FF2078114F114E08280DD00020FFF73CF970780128207810D00D4969180880FE2070700020F8BD0120FFF72EF90720B8810549203148
:4061800088800120F2E7B8810248217820308180EBE70000C0112E40DC0C002000102E4070B50E46050001D0002400E00C4C002C11D0E28A500609D5D107C90F022003F0BC
:4061C000A9F9E08A40218843E08204E0D107C90F012003F09FF93146284602F079FE70BD04150020F8B50546002004460D4E009013E022466946284600F0C2FF00980028DB
:4062000001D00DF00FFDA878214602F039FCA878214602F027FC641CE4B2308AA042E8D8F8BD0000CC150020064A02235188891C89B25180814201D8102900D953805088BA
:4062400070470000EE0C00200148407870470000EE0C0020F8B54A4CFFF758F8012840D14848007800283CD002F0BAFD002838D004F060FD002834D0434E307E00287DD171
:406280007078002500285BD0000706D53F488089070B00F025F9384370D13B484178684604F096FB21793A4CA2788918C9B2814262D802F095FD002860D0344860300789F6
:4062C000314E203602F0CCFB6846008802F0F6FB02F09EFC2F490988884203D10120FFF753F84BE02C49012008702748807B00281DD0002F1BD04036F07E002817D1234831
:406300006030008820494000C031C98881420AD26078002807D103F02BF92049088A03221202104308822078002800D0257002F011FC0120FFF722F800F086FC164C15E09D
:4063400002F04EFD002819D0102402F061FC214602F04AFB02F0B2FB0F4C0120207002F0F9FB0020FFF70AF800F06EFC20780128B4D1FEF797FF25700020F8BDFF20F8BD9C
:40638000DC1400206C0C0020E4140020A0102E40F20C0020040D0020EE0C0020E0112E4010B50848FF244078002809D102F018FD012805D1FEF784FE0720FEF7E5FF0024A4
:4063C000204610BDE414002008B5FEF79FFF012801D0002008BD02F003FD002803D00D48017E002901D0FF2008BD417800290FD0684604F0EDFA022806D96846008802F009
:406400005DFB012002F0B0FB0320FEF7BDFFE0E70020F7E7E414002038B51E4CFEF776FF042813D0052811D0062812D003282AD007280AD100206946087002460120FEF7D3
:406440005DFEFEF763FF0128FBD138BD00F01CFC38BD02F0A1FB00F017FC02F013FC8007800F0228F4D10C4841880029F0D05B21095D0029ECD101210170A07D014002200B
:4064800003F048F838BD02F08BFB0120FEF77CFF38BD000004150020F20C0020F8B50646002403F095F80546304603F0ABF803460A480021068A0DE001228A401046174692
:4064C00028401F40002803D0002F01D1224394B2491CC9B28E42EFD82046F8BDCC15002070B500252C460A4E03E0002C01D0002000E030460079002803D02046FFF7CEFF94
:406500000543641C2406240EEFD0284670BD0000041500201CB50020694648706846FFF7A9FD01AA69460A20FEF7E8FD6946042008561CBD70B50D4601F0C8F904000BD091
:406540002079002808D0FDF7A5FDE178A0782A4602F054FD002070BD022070BD0148007870470000DC1400204030C07E002800D00120704700B500F001F800BD902148438F
:406580000749084A40186030417F491CC9B24177D289914201D300214177C8B270470000E4140020CC15002013B501F08FF904000BD001F052FE002807D0214601AA0A3127
:4065C0000620FEF79BFD00201CBD02201CBD000010B50C4601F07AF900280AD001F03DFE002806D0224604490A20FEF787FD002010BD022010BD0000C5140020F3B581B047
:40660000074601460026029802F0DAFF0446002F01D0002500E0154D002D21D0284601F08BF9032C04D13946029803F025F806463846029902F016FA032C06D0002C10D0E4
:406640000121384601F028FB03E03146384603F0A7F9284602F00CF90221284602F022F9FEBD3846029902F0FDF9FEBD0415002010B5044600F0D0FA002804D104F01AF97B
:40668000002801D00C2010BD2078611C02F0B2FDFF2801D01F2010BD02F0F8FDFF280AD02178621C02F072F9044821780068026B601C904710BD072010BD0000100D0020C7
:4066C00010B504F0F7F8002801D00C2010BD02F073FD03480068C06A8047002010BD0000100D002070B50D46044610210DF0DAF91021601806460DF0D5F933461022194643
:40670000204604F005F9102130460DF0CBF902202870204605F060F870BD0000F8B504464078217802028006870FE0781143A67809050002090D0643084601F0C7F800213F
:406740000546F2B2002812D0002C10D0022F0ED0032F0CD0002A0AD00279092A07D0002A05D0134A5A23527E1B5C9A4207D82889002104F027FF20460DF054FAFF210029AD
:4067800014D10C48224600682946436930469847C0B2FF280AD128464030817EF2B2491C8176FF232146284600F009F9F8BD00009C1400202C0D00200020704710B5044662
:4067C00004F078F8002801D00C2010BD2078611C02F010FDFF2808D002F054FC044821780068426B601C904710BD1F2010BD0000100D002010B500F0A9F905F0C9F800205E
:4068000010BD000010B504460F4801F04FFD012817D00D4805222146AC30FDF7FAFB0A490522AC310846BC38FDF7F3FB00F05CFD054880222038C17B1143C17300F0BCF9BC
:4068400010BD3A2010BD00000415002010B5044600786178E2780843A17811430843217908436179084305D004F016F8002803D00C2010BD122010BD204602F067FD00207E
:4068800010BD000010B5FDF731F902F0C3FE044804F0A8F902F000FC012000F003F810BDAC140020F1B586B003A8009005A8019028489F22817A114081726846FDF704FC86
:4068C000002845D169460989C90705D0224806990068C2686846904769460989890706D5002835D11D480068816A0698884700282ED11B4E0025757075737571F5753576D8
:4069000075767575B570F570B5713746F5730120CC3738731F20F880FF2130467972A0300176457603F014FD01F078FC00242046069901F025FC002803D1641C2406240E68
:40694000F5D0FD720649BD72B573C0310D600D7107B0F0BD9C1400202C0D0020100D0020E414002070B505460E46084602F030FE0446304602F046FE0121A9400A4622409A
:4069800001400A4301D0012070BD002070BD10B50446084602F036FE0121A140014201D0012010BD002010BD10B5FEF7AFFC032804D102F0F5F80120FEF7E6FC10BDFEB5AC
:4069C0001C4616460F46054601F052FFA878FFF7D1FD02460190334639460094284600F00DF8002808D1A8780199FFF7D9FBFF2C02D138460DF016F9FEBD0000FFB585B09A
:406A000005460E980C46FF2810D02B49C00009680A5840180179C0795278814201D9012601E09006860F6846038108E06078A1788006860FE07800020143684601812846FE
:406A400001F020FC070007D021462846079A00F043FB384609B0F0BD304600F029FC04AE0346039002AA29460096204600F02FFA3C20405D002818D0284601F003FC0128CA
:406A800013D0684600890096C0B20190A878231DFF22079902F0D0F968460089039BC2B2A878079902F014FDD3E7684600890021C0B20091E9E70000280D0020F8B500262E
:406AC00000253046FFF7EAFC07001DD090201149704340186030447F12E0601CFDF762F9CCB23846E040C007C00F07D02146304601F0AEFF21463046FFF780FD6D1CEDB28A
:406B00000548018AA942E8D8761C3606360ED7D0F8BD0000E4140020CC15002070B50024094D03E0002C01D0002000E028464121095C012901D100F088FA641C2406240E4D
:406B4000F0D000F039F870BD0415002010B502F0A3FA0020FFF7A6FE0DF0FAF8002010BDF8B5002403F090FB012800D10224114F00203E46203601230425082203E0002899
:406B800001D0002100E031460979002907D001290BD002290BD0114681402143CCB2401C0006000EEBD07C70F8BD1C43F7E72C43F5E70000E414002070B5144E0024F07B83
:406BC000C00921D03546203503E0002C01D0002000E0284601F04CFB012814D0641C2406240EF2D0F07B4006400EF073002403E0002C01D0002000E0284600F026FA641C76
:406C00002406240EF4D0002070BD0000E414002010B5FFF7A5FF10BD10B5044605F095F8002802D1601C00F001F810BD1CB500240094062269460194FDF7DCF9002800D12E
:406C4000122420461CBD000070B50E4CFCF791FD0546FEF75BFB062802D02078012803D02846FCF78AFD70BDFCF7E6FC2846FCF784FDFEF74BFB0628F5D020780028E5D105
:406C800070BD0000EE0C002010B5FCF772FD0446FEF73CFB012809D0FEF738FB022805D0FCF7CAFC2046FCF768FDEEE72046FCF764FD10BD10B50B4681791943817103D0C3
:406CC0008078114602F0BCFB10BD10B582798A43827102D1807802F0C7FB10BD0346084800B5834209D8184600F0F0FD002804D00089984201D1012000BD002000BD0000E8
:406D0000FF0E0000074A9179491C8906890E917138220A4092014907090E11430843024908407047E4140020FF0E0000C006C00E70470000F8B507460E4600240D4803E0BD
:406D4000002C01D0002500E005462979002905D0641C2406240EF3D00020F8BD0021204601F00EFA2E712046FFF7CCFF28813C700120F8BD04150020F7B53D20405C88B02B
:406D800015460C46002802D02878042802D200200BB0F0BD6946087200262046FFF7E4FB012800D00126204603A938300191009023460327A17E34333246206A03F032FF7F
:406DC00002A8089900900B46019120463A4603A9243003F07DFD02466846007A2870204601F0BAF91046D3E7FFB587B00C4605461078694608723D20005D1746002826D0F2
:406E000000262046FFF7B0FB012800D00126204603A93830019100902346A17E34333246206A03F0FFFE02A80090291D019120462B1D03A924300A9A03F04AFD020068463A
:406E4000007A388002D1204601F086F910460BB0F0BDF0B505463C20405C89B016460C4600280CD0307869460873002806D000272046FFF779FB012803D003E01F2009B008
:406E8000F0BD012703200890204604A93830019100902346E17E34333A46E06903F0C2FE6846007B03A928180290009120462B46019504A92430089A03F03EFD024668468E
:406EC000007B3070204601F051F91046D7E7FFB505463C20405C89B016460C46002810D0084601F0CFF901280BD0308869468883002809D000272046FFF736FB012805D0AC
:406F000005E000200DB0F0BD0220FBE70127204603A93830019100902346E17E34333A46E06903F07FFE291D2B1D07A8129A6D4607C5204603A924300C9A03F0FDFC02460A
:406F40006846808B3080204601F010F91046D9E710B518490446484028D0002101231A468A40904221D0491C2029F8D300212046C840C243520618D0400616D0491C1929F0
:406F8000F5D3A0B2210C020AC3B2884201D193420BD01F21204600F090F9182805D8A00E062100F08AF9022801D2002010BD012010BD0000D6BE898E002801D0002000E0BD
:406FC00003484030C07F012800D0002070470000041500200146002049070ED50021084B03E0002901D0002200E01A461279022A04D0491C0906090EF3D0704701207047D9
:40700000041500200146002049070ED50021084B03E0002901D0002200E01A461279022A04D0491C0906090EF3D07047012070470415002010B5044680346068002803D0A3
:407040000CF004FE0020606010BD38B50546002000902846FFF788FA01281FD1284601F0FCF800281AD028792C46C01E40340300FDF7D8F907050511110511141100284610
:4070800001F006F9012806D068460CF071FD002805D0012008E060780028FAD038BD2846009902F0C3FD0220607038BD40308170704770B50546403528780C46052904D073
:4070C000002C05D1801E022802D8022002F03EFF2C7070BD0171704792001018C166704710B5002801D0002000E00348002802D0008904F0DBFA10BD0415002010B50028C9
:4071000001D0002000E00448002804D00179072901D100F08BF810BD0415002010B54121095C012901D1FFF790FF002010BD000070B50546008A00281ED01049F122897AC8
:407140001140C90618D5294640314A8A098A521C4A4392B2D10800D10121540801E0621A94B2A042FBD9FEF7ADFE012804D1298AA878224601F0E8FE70BD00009C1400204E
:4071800010B50023054C0B60248A944204D992001018C26E0A60C36610BD0000CC150020FEB506460020009001908020855968460CF0DEFC002801D00720FEBD20213046AB
:4071C000009FFFF782FD34464034A08AE080608AA080208A2081304602F01EFFA88C218A884207D1288A618A884203D1688AA18A884203D0F07920210843F071688AA08249
:40720000288A6082A88C2082E98CE182FFF70CF8E081208AFFF718F860733946304602F02DFD0120A0700198FEBD000038B5044600200090A079002814D14020015D05299F
